{
  "contractName": "UserRegistry",
  "abi": [
    {
      "anonymous": false,
      "inputs": [
        {
          "indexed": true,
          "internalType": "address",
          "name": "wallet",
          "type": "address"
        },
        {
          "indexed": false,
          "internalType": "string",
          "name": "username",
          "type": "string"
        },
        {
          "indexed": false,
          "internalType": "string",
          "name": "email",
          "type": "string"
        },
        {
          "indexed": false,
          "internalType": "string",
          "name": "role",
          "type": "string"
        }
      ],
      "name": "UserRegistered",
      "type": "event"
    },
    {
      "anonymous": false,
      "inputs": [
        {
          "indexed": true,
          "internalType": "address",
          "name": "wallet",
          "type": "address"
        },
        {
          "indexed": false,
          "internalType": "string",
          "name": "username",
          "type": "string"
        },
        {
          "indexed": false,
          "internalType": "string",
          "name": "email",
          "type": "string"
        },
        {
          "indexed": false,
          "internalType": "string",
          "name": "role",
          "type": "string"
        }
      ],
      "name": "UserUpdated",
      "type": "event"
    },
    {
      "inputs": [
        {
          "internalType": "address",
          "name": "",
          "type": "address"
        }
      ],
      "name": "users",
      "outputs": [
        {
          "internalType": "string",
          "name": "username",
          "type": "string"
        },
        {
          "internalType": "string",
          "name": "email",
          "type": "string"
        },
        {
          "internalType": "string",
          "name": "fullName",
          "type": "string"
        },
        {
          "internalType": "address",
          "name": "walletAddress",
          "type": "address"
        },
        {
          "internalType": "string",
          "name": "role",
          "type": "string"
        },
        {
          "internalType": "bool",
          "name": "exists",
          "type": "bool"
        }
      ],
      "stateMutability": "view",
      "type": "function",
      "constant": true
    },
    {
      "inputs": [
        {
          "internalType": "string",
          "name": "_username",
          "type": "string"
        },
        {
          "internalType": "string",
          "name": "_email",
          "type": "string"
        },
        {
          "internalType": "string",
          "name": "_fullName",
          "type": "string"
        },
        {
          "internalType": "string",
          "name": "_role",
          "type": "string"
        }
      ],
      "name": "registerUser",
      "outputs": [],
      "stateMutability": "nonpayable",
      "type": "function"
    },
    {
      "inputs": [
        {
          "internalType": "string",
          "name": "_username",
          "type": "string"
        },
        {
          "internalType": "string",
          "name": "_email",
          "type": "string"
        },
        {
          "internalType": "string",
          "name": "_fullName",
          "type": "string"
        },
        {
          "internalType": "string",
          "name": "_role",
          "type": "string"
        }
      ],
      "name": "updateUser",
      "outputs": [],
      "stateMutability": "nonpayable",
      "type": "function"
    },
    {
      "inputs": [
        {
          "internalType": "address",
          "name": "_wallet",
          "type": "address"
        }
      ],
      "name": "getUser",
      "outputs": [
        {
          "internalType": "string",
          "name": "",
          "type": "string"
        },
        {
          "internalType": "string",
          "name": "",
          "type": "string"
        },
        {
          "internalType": "string",
          "name": "",
          "type": "string"
        },
        {
          "internalType": "string",
          "name": "",
          "type": "string"
        },
        {
          "internalType": "bool",
          "name": "",
          "type": "bool"
        }
      ],
      "stateMutability": "view",
      "type": "function",
      "constant": true
    }
  ],
  "bytecode": "0x608060405234801561000f575f80fd5b50610c9b8061001d5f395ff3fe608060405234801561000f575f80fd5b506004361061004a575f3560e01c80636f77926b1461004e57806393e54a561461007b578063a87430ba14610090578063b5c24a01146100b5575b5f80fd5b61006161005c36600461085c565b6100c8565b6040516100729594939291906108cc565b60405180910390f35b61008e6100893660046109ca565b61038c565b005b6100a361009e36600461085c565b610503565b60405161007296959493929190610a70565b61008e6100c33660046109ca565b610760565b6060806060805f805f80886001600160a01b03166001600160a01b031681526020019081526020015f206040518060c00160405290815f8201805461010c90610ae1565b80601f016020809104026020016040519081016040528092919081815260200182805461013890610ae1565b80156101835780601f1061015a57610100808354040283529160200191610183565b820191905f5260205f20905b81548152906001019060200180831161016657829003601f168201915b5050505050815260200160018201805461019c90610ae1565b80601f01602080910402602001604051908101604052809291908181526020018280546101c890610ae1565b80156102135780601f106101ea57610100808354040283529160200191610213565b820191905f5260205f20905b8154815290600101906020018083116101f657829003601f168201915b5050505050815260200160028201805461022c90610ae1565b80601f016020809104026020016040519081016040528092919081815260200182805461025890610ae1565b80156102a35780601f1061027a576101008083540402835291602001916102a3565b820191905f5260205f20905b81548152906001019060200180831161028657829003601f168201915b505050918352505060038201546001600160a01b031660208201526004820180546040909201916102d390610ae1565b80601f01602080910402602001604051908101604052809291908181526020018280546102ff90610ae1565b801561034a5780601f106103215761010080835404028352916020019161034a565b820191905f5260205f20905b81548152906001019060200180831161032d57829003601f168201915b50505091835250506005919091015460ff1615156020918201528151908201516040830151608084015160a090940151929b919a509850919650945092505050565b335f9081526020819052604090206005015460ff16156103f35760405162461bcd60e51b815260206004820152601760248201527f5573657220616c7265616479207265676973746572656400000000000000000060448201526064015b60405180910390fd5b6040805160c0810182528581526020808201869052818301859052336060830181905260808301859052600160a08401525f90815290819052919091208151819061043e9082610b67565b50602082015160018201906104539082610b67565b50604082015160028201906104689082610b67565b5060608201516003820180546001600160a01b0319166001600160a01b03909216919091179055608082015160048201906104a39082610b67565b5060a091909101516005909101805460ff191691151591909117905560405133907f509c70f523067009f7db7f46db6956d7af8b679323680dc3821a8bad001ac1e1906104f590879087908690610c23565b60405180910390a250505050565b5f6020819052908152604090208054819061051d90610ae1565b80601f016020809104026020016040519081016040528092919081815260200182805461054990610ae1565b80156105945780601f1061056b57610100808354040283529160200191610594565b820191905f5260205f20905b81548152906001019060200180831161057757829003601f168201915b5050505050908060010180546105a990610ae1565b80601f01602080910402602001604051908101604052809291908181526020018280546105d590610ae1565b80156106205780601f106105f757610100808354040283529160200191610620565b820191905f5260205f20905b81548152906001019060200180831161060357829003601f168201915b50505050509080600201805461063590610ae1565b80601f016020809104026020016040519081016040528092919081815260200182805461066190610ae1565b80156106ac5780601f10610683576101008083540402835291602001916106ac565b820191905f5260205f20905b81548152906001019060200180831161068f57829003601f168201915b505050600384015460048501805494956001600160a01b039092169491935091506106d690610ae1565b80601f016020809104026020016040519081016040528092919081815260200182805461070290610ae1565b801561074d5780601f106107245761010080835404028352916020019161074d565b820191905f5260205f20905b81548152906001019060200180831161073057829003601f168201915b5050506005909301549192505060ff1686565b335f9081526020819052604090206005015460ff166107b25760405162461bcd60e51b815260206004820152600e60248201526d155cd95c881b9bdd08199bdd5b9960921b60448201526064016103ea565b335f9081526020819052604090206107ca8582610b67565b50335f9081526020819052604090206001016107e68482610b67565b50335f9081526020819052604090206002016108028382610b67565b50335f90815260208190526040902060040161081e8282610b67565b50336001600160a01b03167f4b314ef62dce971c911709f34a09ad2379c819e66e3529f09fcf90464b46498e8585846040516104f593929190610c23565b5f6020828403121561086c575f80fd5b81356001600160a01b0381168114610882575f80fd5b9392505050565b5f81518084525f5b818110156108ad57602081850181015186830182015201610891565b505f602082860101526020601f19601f83011685010191505092915050565b60a081525f6108de60a0830188610889565b82810360208401526108f08188610889565b905082810360408401526109048187610889565b905082810360608401526109188186610889565b91505082151560808301529695505050505050565b634e487b7160e01b5f52604160045260245ffd5b5f82601f830112610950575f80fd5b813567ffffffffffffffff8082111561096b5761096b61092d565b604051601f8301601f19908116603f011681019082821181831017156109935761099361092d565b816040528381528660208588010111156109ab575f80fd5b836020870160208301375f602085830101528094505050505092915050565b5f805f80608085870312156109dd575f80fd5b843567ffffffffffffffff808211156109f4575f80fd5b610a0088838901610941565b95506020870135915080821115610a15575f80fd5b610a2188838901610941565b94506040870135915080821115610a36575f80fd5b610a4288838901610941565b93506060870135915080821115610a57575f80fd5b50610a6487828801610941565b91505092959194509250565b60c081525f610a8260c0830189610889565b8281036020840152610a948189610889565b90508281036040840152610aa88188610889565b6001600160a01b038716606085015283810360808501529050610acb8186610889565b91505082151560a0830152979650505050505050565b600181811c90821680610af557607f821691505b602082108103610b1357634e487b7160e01b5f52602260045260245ffd5b50919050565b601f821115610b62575f81815260208120601f850160051c81016020861015610b3f5750805b601f850160051c820191505b81811015610b5e57828155600101610b4b565b5050505b505050565b815167ffffffffffffffff811115610b8157610b8161092d565b610b9581610b8f8454610ae1565b84610b19565b602080601f831160018114610bc8575f8415610bb15750858301515b5f19600386901b1c1916600185901b178555610b5e565b5f85815260208120601f198616915b82811015610bf657888601518255948401946001909101908401610bd7565b5085821015610c1357878501515f19600388901b60f8161c191681555b5050505050600190811b01905550565b606081525f610c356060830186610889565b8281036020840152610c478186610889565b90508281036040840152610c5b8185610889565b969550505050505056fea264697066735822122045bb4b5fbc53630e0c3a8d89b7c9c2f67e07d10f34a0f768d96df5a4dd5a547e64736f6c63430008140033",
  "immutableReferences": {},
  "source": "// SPDX-License-Identifier: MIT\npragma solidity ^0.8.0;\n\ncontract UserRegistry {\n    struct User {\n        string username;\n        string email;\n        string fullName;\n        address walletAddress;\n        string role;\n        bool exists;\n    }\n\n    mapping(address => User) public users;\n\n    event UserRegistered(address indexed wallet, string username, string email, string role);\n    event UserUpdated(address indexed wallet, string username, string email, string role);\n\n    // WalletAddress + Email auto-assigned (sender msg.sender + backend)\n    function registerUser(\n        string memory _username,\n        string memory _email,\n        string memory _fullName,\n        string memory _role\n    ) public {\n        require(!users[msg.sender].exists, \"User already registered\");\n\n        users[msg.sender] = User({\n            username: _username,\n            email: _email,\n            fullName: _fullName,\n            walletAddress: msg.sender,\n            role: _role,\n            exists: true\n        });\n\n        emit UserRegistered(msg.sender, _username, _email, _role);\n    }\n\n    function updateUser(\n        string memory _username,\n        string memory _email,\n        string memory _fullName,\n        string memory _role\n    ) public {\n        require(users[msg.sender].exists, \"User not found\");\n\n        users[msg.sender].username = _username;\n        users[msg.sender].email = _email;\n        users[msg.sender].fullName = _fullName;\n        users[msg.sender].role = _role;\n\n        emit UserUpdated(msg.sender, _username, _email, _role);\n    }\n\n    function getUser(address _wallet) public view returns (\n        string memory, string memory, string memory, string memory, bool\n    ) {\n        User memory u = users[_wallet];\n        return (u.username, u.email, u.fullName, u.role, u.exists);\n    }\n}\n",
  "sourcePath": "C:\\Users\\pujan\\Downloads\\DMIS_SLT-DIMS-final\\DMIS_SLT-DIMS-final\\DMIS_SLT - Copy (2)\\Project-main\\Blockchain\\contracts\\UserRegistry.sol",
  "compiler": {
    "name": "solc",
    "version": "0.8.20+commit.a1b79de6.Emscripten.clang"
  },
  "schemaVersion": "3.4.16",
  "updatedAt": "2025-10-01T07:08:20.430Z",
  "networkType": "ethereum",
  "devdoc": {
    "kind": "dev",
    "methods": {},
    "version": 1
  },
  "userdoc": {
    "kind": "user",
    "methods": {},
    "version": 1
  }
}